{
  "contractName": "MyWallet",
  "abi": [
    {
      "constant": false,
      "inputs": [],
      "name": "kill",
      "outputs": [],
      "payable": false,
      "stateMutability": "nonpayable",
      "type": "function"
    },
    {
      "payable": true,
      "stateMutability": "payable",
      "type": "fallback"
    },
    {
      "anonymous": false,
      "inputs": [
        {
          "indexed": true,
          "name": "_from",
          "type": "address"
        },
        {
          "indexed": true,
          "name": "_amount",
          "type": "uint256"
        }
      ],
      "name": "receivedFunds",
      "type": "event"
    },
    {
      "anonymous": false,
      "inputs": [
        {
          "indexed": true,
          "name": "_from",
          "type": "address"
        },
        {
          "indexed": true,
          "name": "_to",
          "type": "address"
        },
        {
          "indexed": false,
          "name": "reason",
          "type": "string"
        },
        {
          "indexed": false,
          "name": "proposal_id",
          "type": "uint256"
        }
      ],
      "name": "proposalReceived",
      "type": "event"
    },
    {
      "constant": false,
      "inputs": [
        {
          "name": "_to",
          "type": "address"
        },
        {
          "name": "_value",
          "type": "uint256"
        },
        {
          "name": "_reason",
          "type": "string"
        }
      ],
      "name": "spendMoneyOn",
      "outputs": [
        {
          "name": "",
          "type": "uint256"
        }
      ],
      "payable": false,
      "stateMutability": "nonpayable",
      "type": "function"
    },
    {
      "constant": false,
      "inputs": [
        {
          "name": "proposal_id",
          "type": "uint256"
        }
      ],
      "name": "confirmProposal",
      "outputs": [
        {
          "name": "",
          "type": "bool"
        }
      ],
      "payable": false,
      "stateMutability": "nonpayable",
      "type": "function"
    }
  ],
  "bytecode": "0x6060604052336000806101000a81548173ffffffffffffffffffffffffffffffffffffffff021916908373ffffffffffffffffffffffffffffffffffffffff16021790555061074e806100536000396000f300606060405260043610610057576000357c0100000000000000000000000000000000000000000000000000000000900463ffffffff168063192997e7146100a757806341c0e1b514610140578063f4a4f4d214610155575b60003411156100a557343373ffffffffffffffffffffffffffffffffffffffff167f3f638da77ee3d49db2211092b965c9c7c2fcb68fea5e8f85986200f8776f6a1d60405160405180910390a35b005b34156100b257600080fd5b61012a600480803573ffffffffffffffffffffffffffffffffffffffff1690602001909190803590602001909190803590602001908201803590602001908080601f01602080910402602001604051908101604052809392919081815260200183838082843782019150505050505091905050610190565b6040518082815260200191505060405180910390f35b341561014b57600080fd5b61015361046c565b005b341561016057600080fd5b61017660048080359060200190919050506104fd565b604051808215151515815260200191505060405180910390f35b6000803373ffffffffffffffffffffffffffffffffffffffff166000809054906101000a900473ffffffffffffffffffffffffffffffffffffffff1673ffffffffffffffffffffffffffffffffffffffff161415610230578473ffffffffffffffffffffffffffffffffffffffff166108fc859081150290604051600060405180830381858888f19350505050905080151561022b57600080fd5b610463565b600160036000828254019250508190555060a0604051908101604052803373ffffffffffffffffffffffffffffffffffffffff1681526020018673ffffffffffffffffffffffffffffffffffffffff1681526020018581526020018481526020016000151581525060046000600354815260200190815260200160002060008201518160000160006101000a81548173ffffffffffffffffffffffffffffffffffffffff021916908373ffffffffffffffffffffffffffffffffffffffff16021790555060208201518160010160006101000a81548173ffffffffffffffffffffffffffffffffffffffff021916908373ffffffffffffffffffffffffffffffffffffffff16021790555060408201518160020155606082015181600301908051906020019061036192919061067d565b5060808201518160040160006101000a81548160ff0219169083151502179055509050508473ffffffffffffffffffffffffffffffffffffffff163373ffffffffffffffffffffffffffffffffffffffff167f492e103af6f9230a4390ccafe2c1781adba1b6ff6b665ab8aed3151cd2d0d1eb856003546040518080602001838152602001828103825284818151815260200191508051906020019080838360005b8381101561041e578082015181840152602081019050610403565b50505050905090810190601f16801561044b5780820380516001836020036101000a031916815260200191505b50935050505060405180910390a36003549150610464565b5b509392505050565b6000809054906101000a900473ffffffffffffffffffffffffffffffffffffffff1673ffffffffffffffffffffffffffffffffffffffff163373ffffffffffffffffffffffffffffffffffffffff1614156104fb576000809054906101000a900473ffffffffffffffffffffffffffffffffffffffff1673ffffffffffffffffffffffffffffffffffffffff16ff5b565b6000806000809054906101000a900473ffffffffffffffffffffffffffffffffffffffff1673ffffffffffffffffffffffffffffffffffffffff163373ffffffffffffffffffffffffffffffffffffffff16141561067757600460008481526020019081526020016000209050600073ffffffffffffffffffffffffffffffffffffffff168160000160009054906101000a900473ffffffffffffffffffffffffffffffffffffffff1673ffffffffffffffffffffffffffffffffffffffff1614151561067557600115158160040160009054906101000a900460ff161515141515610674578060010160009054906101000a900473ffffffffffffffffffffffffffffffffffffffff1673ffffffffffffffffffffffffffffffffffffffff166108fc82600201549081150290604051600060405180830381858888f193505050501561066b5760018160040160006101000a81548160ff02191690831515021790555060019150610676565b60009150610676565b5b5b5b50919050565b828054600181600116156101000203166002900490600052602060002090601f016020900481019282601f106106be57805160ff19168380011785556106ec565b828001600101855582156106ec579182015b828111156106eb5782518255916020019190600101906106d0565b5b5090506106f991906106fd565b5090565b61071f91905b8082111561071b576000816000905550600101610703565b5090565b905600a165627a7a7230582016026acb825d0da761bd940c55f869fcaa45d3cc9122b5c4709cd1731c951d390029",
  "source": "pragma solidity ^0.4.18;\r\n\r\nimport \"./mortal.sol\";\r\n\r\ncontract MyWallet is mortal {\r\n    address creator;\r\n    uint256 myNumber;\r\n    \r\n    struct proposal{\r\n        address _from;\r\n        address _to;\r\n        uint256 _value;\r\n        string _reason;\r\n        bool sent;\r\n    }\r\n    // default value of string is null and int is 0\r\n    uint256 proposal_ctr;\r\n    // no of proposals\r\n    mapping(uint256 => proposal) m_proposals;\r\n\r\n    event receivedFunds(address indexed _from, uint256 indexed _amount);\r\n    event proposalReceived(address indexed _from, address indexed _to, string reason, uint256 proposal_id);\r\n    \r\n    function spendMoneyOn(address _to, uint256 _value, string _reason) public returns (uint256) {\r\n        if(owner==msg.sender){\r\n            bool sent=_to.send(_value);\r\n            if(!sent){\r\n                revert();\r\n            }}\r\n            else{\r\n                proposal_ctr+=1;\r\n                m_proposals[proposal_ctr]=proposal(msg.sender, _to,_value,_reason,false);\r\n                proposalReceived(msg.sender,_to,_reason,proposal_ctr);\r\n                return proposal_ctr;\r\n            }\r\n        }\r\n        \r\n    function confirmProposal(uint256 proposal_id) onlyowner public returns (bool){\r\n        proposal _proposal=m_proposals[proposal_id];\r\n        // the below condition checks if we aren't checking the \"not real\" proposals whose add value is defaulted to address(0)\r\n        if(_proposal._from!=address(0)){\r\n            if(_proposal.sent!=true){\r\n                if(_proposal._to.send(_proposal._value)){\r\n                    _proposal.sent=true;\r\n                    return true;\r\n                }\r\n                return false;\r\n            }\r\n        }\r\n    }\r\n    \r\n\r\n    function() payable public {\r\n        if (msg.value>0) {\r\n            receivedFunds(msg.sender, msg.value);\r\n        }\r\n    }\r\n}\r\n",
  "sourcePath": "E:\\Important documents\\Blockchain\\truffle_eth_class2-master\\s11\\tw_wp_truffle\\contracts\\MyWallet.sol",
  "compiler": {
    "name": "solc",
    "version": "0.4.19+commit.c4cbbb05.Emscripten.clang"
  },
  "schemaVersion": "2.0.0",
  "updatedAt": "2018-04-01T12:58:00.363Z"
}